:020000040800F2
:1000000000500020592400085523000857230008F9
:10001000592300085B2300085D230008000000004E
:100020000000000000000000000000005F23000846
:100030006123000800000000632300086523000816
:10004000A1240008A1240008A1240008A12400087C
:10005000A1240008A1240008A1240008A12400086C
:10006000A1240008A1240008A1240008A12400085C
:10007000A1240008A1240008A1240008A12400084C
:10008000A1240008A1240008A1240008A12400083C
:10009000A1240008A1240008A1240008A12400082C
:1000A000A1240008A1240008A1240008A12400081C
:1000B000A1240008A1240008A1240008A12400080C
:1000C000A1240008A1240008A1240008A1240008FC
:1000D000A1240008A1240008A1240008A1240008EC
:1000E000A1240008A1240008A124000800000000A9
:1000F0000000000000000000000000000000000000
:0C01000000000000000000005FF808F1A3
:1001100010B5054C237833B9044B13B10448AFF341
:1001200000800123237010BDDC01002000000000CE
:10013000B852000808B5034B1BB103490348AFF39D
:10014000008008BD00000000E0010020B852000857
:10015000034613F8012B002AFBD1181A0138704707
:1001600081F0004102E000BF83F0004330B54FEA68
:1001700041044FEA430594EA050F08BF90EA020FD5
:100180001FBF54EA000C55EA020C7FEA645C7FEA68
:10019000655C00F0E2804FEA5454D4EB5555B8BF8B
:1001A0006D420CDD2C4480EA020281EA030382EAFC
:1001B000000083EA010180EA020281EA0303362D8E
:1001C00088BF30BD11F0004F4FEA01314FF4801C61
:1001D0004CEA113102D0404261EB410113F0004F73
:1001E0004FEA03334CEA133302D0524263EB43032A
:1001F00094EA050F00F0A780A4F10104D5F1200EC8
:100200000DDB02FA0EFC22FA05F2801841F1000122
:1002100003FA0EF2801843FA05F359410EE0A5F1F6
:1002200020050EF1200E012A03FA0EFC28BF4CF027
:10023000020C43FA05F3C01851EBE37101F00045DD
:1002400007D54FF0000EDCF1000C7EEB00006EEBEA
:100250000101B1F5801F1BD3B1F5001F0CD3490874
:100260005FEA30004FEA3C0C04F101044FEA4452CB
:1002700012F5800F80F09A80BCF1004F08BF5FEA52
:10028000500C50F1000041EB045141EA050130BD32
:100290005FEA4C0C404141EB0101013C28BFB1F544
:1002A000801FE9D291F0000F04BF01460020B1FA8F
:1002B00081F308BF2033A3F10B03B3F120020CDA62
:1002C0000C3208DD02F1140CC2F10C0201FA0CF040
:1002D00021FA02F10CE002F11402D8BFC2F1200CA5
:1002E00001FA02F120FA0CFCDCBF41EA0C0190405B
:1002F000E41AA2BF01EB0451294330BD6FEA0404A4
:100300001F3C1CDA0C340EDC04F11404C4F120028E
:1003100020FA04F001FA02F340EA030021FA04F3A0
:1003200045EA030130BDC4F10C04C4F1200220FAF7
:1003300002F001FA04F340EA0300294630BD21FA35
:1003400004F0294630BD94F0000F83F4801306BFFB
:1003500081F480110134013D4EE77FEA645C18BFEF
:100360007FEA655C29D094EA050F08BF90EA020F86
:1003700005D054EA000C04BF1946104630BD91EA7E
:10038000030F1EBF0021002030BD5FEA545C05D181
:100390004000494128BF41F0004130BD14F58004C0
:1003A0003CBF01F5801130BD01F0004545F0FE4134
:1003B00041F470014FF0000030BD7FEA645C1ABF69
:1003C000194610467FEA655C1CBF0B46024650EAA0
:1003D000013406BF52EA033591EA030F41F40021CC
:1003E00030BD00BF90F0000F04BF0021704730B552
:1003F0004FF4806404F132044FF000054FF0000127
:1004000050E700BF90F0000F04BF0021704730B5E7
:100410004FF4806404F1320410F0004548BF4042BC
:100420004FF000013EE700BF42004FEAE2014FEA11
:1004300031014FEA02701FBF12F07F4393F07F4FEC
:1004400081F06051704732F07F4208BF704793F0EF
:100450007F4F04BF41F40021704730B54FF4607402
:1004600001F0004521F000411CE700BF50EA010205
:1004700008BF704730B54FF000050AE050EA0102AE
:1004800008BF704730B511F0004502D5404261EB1E
:1004900041014FF4806404F132045FEA915C3FF45F
:1004A000D8AE4FF003025FEADC0C18BF03325FEAFC
:1004B000DC0C18BF033202EBDC02C2F1200300FAAD
:1004C00003FC20FA02F001FA03FE40EA0E0021FAD2
:1004D00002F11444BDE600BF70B54FF0FF0C4CF4C0
:1004E000E06C1CEA11541DBF1CEA135594EA0C0F72
:1004F00095EA0C0F00F0DEF82C4481EA030621EAAD
:100500004C5123EA4C5350EA013518BF52EA0335E7
:1005100041F4801143F4801338D0A0FB02CE4FF099
:100520000005E1FB02E506F00042E0FB03E54FF0C9
:100530000006E1FB03569CF0000F18BF4EF0010EC1
:10054000A4F1FF04B6F5007F64F5407404D25FEABD
:100550004E0E6D4146EB060642EAC62141EA555170
:100560004FEAC52040EA5E504FEACE2EB4F1FD0CB2
:1005700088BFBCF5E06F1ED8BEF1004F08BF5FEA30
:10058000500E50F1000041EB045170BD06F00046E2
:1005900046EA010140EA020081EA0301B4EB5C048F
:1005A000C2BFD4EB0C0541EA045170BD41F4801187
:1005B0004FF0000E013C00F3AB8014F1360FDEBFAC
:1005C000002001F0004170BDC4F10004203C35DA88
:1005D0000C341BDC04F11404C4F1200500FA05F30B
:1005E00020FA04F001FA05F240EA020001F00042AC
:1005F00021F0004110EBD37021FA04F642EB060122
:100600005EEA430E08BF20EAD37070BDC4F10C044B
:10061000C4F1200500FA04F320FA05F001FA04F20F
:1006200040EA020001F0004110EBD37041F10001FB
:100630005EEA430E08BF20EAD37070BDC4F1200506
:1006400000FA05F24EEA020E20FA04F301FA05F26E
:1006500043EA020321FA04F001F0004121FA04F216
:1006600020EA020000EBD3705EEA430E08BF20EAE6
:10067000D37070BD94F0000F0FD101F00046400020
:1006800041EB010111F4801F08BF013CF7D041EAA2
:10069000060195F0000F18BF704703F000465200A6
:1006A00043EB030313F4801F08BF013DF7D043EA77
:1006B0000603704794EA0C0F0CEA135518BF95EA2D
:1006C0000C0F0CD050EA410618BF52EA4306D1D1B4
:1006D00081EA030101F000414FF0000070BD50EAD3
:1006E000410606BF1046194652EA430619D094EA5D
:1006F0000C0F02D150EA013613D195EA0C0F05D147
:1007000052EA03361CBF104619460AD181EA03019A
:1007100001F0004141F0FE4141F470014FF0000052
:1007200070BD41F0FE4141F4780170BD70B54FF0ED
:10073000FF0C4CF4E06C1CEA11541DBF1CEA13556D
:1007400094EA0C0F95EA0C0F00F0A7F8A4EB05044F
:1007500081EA030E52EA03354FEA013100F0888046
:100760004FEA03334FF0805545EA131343EA12630F
:100770004FEA022245EA111545EA10654FEA0026C4
:100780000EF000419D4208BF964244F1FD0404F57D
:10079000407402D25B084FEA3202B61A65EB0305D9
:1007A0005B084FEA32024FF480104FF4002CB6EB96
:1007B000020E75EB030E22BFB61A754640EA0C0016
:1007C0005B084FEA3202B6EB020E75EB030E22BF56
:1007D000B61A754640EA5C005B084FEA3202B6EB97
:1007E000020E75EB030E22BFB61A754640EA9C0056
:1007F0005B084FEA3202B6EB020E75EB030E22BF26
:10080000B61A754640EADC0055EA060E18D04FEAE3
:10081000051545EA16754FEA06164FEAC30343EA83
:1008200052734FEAC2025FEA1C1CC0D111F4801F50
:100830000BD141EA00014FF000004FF0004CB6E749
:1008400011F4801F04BF01430020B4F1FD0C88BFE8
:10085000BCF5E06F3FF6AFAEB5EB030C04BFB6EBF3
:10086000020C5FEA500C50F1000041EB045170BDE6
:100870000EF0004E4EEA113114EB5C04C2BFD4EB13
:100880000C0541EA045170BD41F480114FF0000E97
:10089000013C90E645EA060E8DE60CEA135594EA13
:1008A0000C0F08BF95EA0C0F3FF43BAF94EA0C0F16
:1008B0000AD150EA01347FF434AF95EA0C0F7FF48B
:1008C00025AF104619462CE795EA0C0F06D152EADF
:1008D00003353FF4FDAE1046194622E750EA4106C3
:1008E00018BF52EA43067FF4C5AE50EA41047FF4D4
:1008F0000DAF52EA43057FF4EBAE12E74FF0FF3C39
:1009000006E000BF4FF0010C02E000BF4FF0010C09
:100910004DF804CD4FEA410C7FEA6C5C4FEA430C82
:1009200018BF7FEA6C5C1BD001B050EA410C0CBFD1
:1009300052EA430C91EA030F02BF90EA020F002033
:10094000704710F1000F91EA030F58BF994208BF9A
:1009500090422CBFD8176FEAE37040F00100704757
:100960004FEA410C7FEA6C5C02D150EA013C07D1AE
:100970004FEA430C7FEA6C5CD6D152EA033CD3D0F9
:100980005DF8040B704700BF8446104662468C46F3
:100990001946634600E000BF01B5FFF7B7FF002826
:1009A00048BF10F1000F01BD4DF808EDFFF7F4FF4F
:1009B0000CBF012000205DF808FB00BF4DF808EDDA
:1009C000FFF7EAFF34BF012000205DF808FB00BFFD
:1009D0004DF808EDFFF7E0FF94BF012000205DF81F
:1009E00008FB00BF4DF808EDFFF7CEFF94BF0120D4
:1009F00000205DF808FB00BF4DF808EDFFF7C4FFCD
:100A000034BF012000205DF808FB00BF4FEA410C15
:100A10007FEA6C5C02D150EA013C0AD14FEA430CF8
:100A20007FEA6C5C02D152EA033C02D14FF0000035
:100A300070474FF0010070474FEA410212F5001273
:100A400015D211D56FF47873B3EB625212D94FEA15
:100A5000C12343F0004343EA505311F0004F23FAFF
:100A600002F018BF404270474FF00000704750EA54
:100A7000013005D111F0004008BF6FF00040704711
:100A80004FF00000704700BF4FEA4102B2F1E0436F
:100A900024BFB3F5001CDCF1FE5C0DD901F0004C65
:100AA0004FEAC0024CEA5070B2F1004F40EB8300B5
:100AB00008BF20F00100704711F0804F21D113F1E1
:100AC0003872BCBF01F00040704741F480114FEA1A
:100AD0005252C2F11802C2F1200C10FA0CF320FAA3
:100AE00002F018BF40F001004FEAC1234FEAD323C0
:100AF00003FA0CFC40EA0C0023FA02F34FEA43032A
:100B0000CCE77FEA625307D150EA01331EBF4FF0B2
:100B1000FE4040F44000704701F0004040F0FE40CD
:100B200040F40000704700BF38B50E4B05461878FA
:100B30004FF47A73B3FBF0F30B4A1068B0FBF3F099
:100B400000F090F8044658B90F2D09D802462946FE
:100B50004FF0FF3000F054F82046044B1D6038BDC4
:100B60000120FCE700000020080000200400002015
:100B7000074A08B51368032043F01003136000F020
:100B80002DF80020FFF7D0FF01F06CFB002008BD1E
:100B900000200240034A044B11681B780B44136089
:100BA000704700BFF801002000000020014B1868CA
:100BB000704700BFF801002038B50446FFF7F6FF84
:100BC0000546631C1EBF044B1B78E418FFF7EEFFBD
:100BD000431BA342FAD338BD00000020074903029B
:100BE000CA6803F4E06322F4E0621204120C1343B7
:100BF00043F0BF6343F40033CB60704700ED00E087
:100C0000164B30B5DC68C4F30224C4F10703251D7C
:100C1000042B28BF0423062D4FF0FF3598BF002476
:100C200005FA03F388BF033C21EA0303A34005FA56
:100C300004F422EA0402002843EA0203ACBF00F1F4
:100C40006040074A4FEA0313DBB2B5BF00F00F0064
:100C500000F56140135480F8003330BD00ED00E032
:100C600014ED00E00138B0F1807F0BD24FF0E023AB
:100C7000F021054A586182F823100020072298616C
:100C80001A6170470120704700ED00E02DE9F74F31
:100C900000221646644F654BDFF894C1DFF894E1FB
:100CA0004FF001080D6808FA06F808EA050438EA6A
:100CB00005057BD14D68032D07D8013D022D00F2BB
:100CC0008E80DFE805F09CA1A700122D00F09F8028
:100CD00073D8112D00F09580FF2C98BF82464FF0FD
:100CE0000F0988BF00F1040A4FEA8605DAF8008090
:100CF00088BF203D09FA05FB28EA0B0802FA05F532
:100D000048EA0505CAF80050D1F804A01AF0805F3F
:100D10004CD0BD6926F0030845F00105BD61BD69F1
:100D200008F1804805F00105019508F5803806F0C6
:100D3000030B019D4FEA8B0BD8F8085009FA0BF909
:100D400025EA09093C4DA84268D005F58065A8420E
:100D500066D005F58065A84264D005F58065A84297
:100D60000CBF0325042505FA0BF545EA0905C8F86B
:100D700008501D681AF4803F14BF2543A5431D6029
:100D80005D681AF4003F14BF2543A5435D609D686C
:100D90001AF4801F14BF2543A5439D60DD681AF433
:100DA000001F14BF2C4325EA0404DC600136102E1A
:100DB0007FF476AF03B0BDE8F08FDFF880904D454B
:100DC0000DD018D8A9F580194D4508D009F570291E
:100DD0004D4504D0A9F580194D457FF47DAF8A6853
:100DE000D2B1012A08BFC0F810804FF0080218BF26
:100DF000C0F8148070E76545F1D07545EDE7CA6825
:100E00006AE7CA68043267E7CA68083264E7CA68F2
:100E10000C3261E700225FE704225DE70025A2E7CC
:100E20000125A0E702259EE70010024000040140D2
:100E300000003110000032100008014000002210B4
:100E400001680246486910F480600CD06FF480633A
:100E50004B6104232021136400230120136382F8D3
:100E60003C3082F83D1070472DE9F84606460F46A3
:100E700091461D464FEA114A3368BAF1010F0CBF83
:100E80005C699C6927EA0404A4B2B4FA84F4640996
:100E9000A14501D000200CE06A1CEED05DB9002312
:100EA00020220320336386F83C3086F83D2086F804
:100EB0003E30BDE8F886FFF779FE089BC01AA842CD
:100EC000DAD9ECE72DE9F04104460F46164698467C
:100ED0002568686927EA000080B298B16B695A05F5
:100EE00012D52B68202243F400732B606FF48063CB
:100EF0006B610423236400230120236384F83C30C6
:100F000084F83D20BDE8F081731CE2D046B900238F
:100F100020222363032084F83D2084F83C30F1E74D
:100F2000FFF744FEA0EB0800B042D1D9EFE770B55F
:100F300004460D46164621684B6913F0400301D064
:100F400000200DE04A69D2060BD56FF010024A610D
:100F500020220120236484F83C30236384F83D2060
:100F600070BD5DB9236C032043F02003236420236C
:100F700084F83D30002384F83C30F1E7FFF716FE9B
:100F8000801BA842D7D9EDE770B504460D4616463A
:100F900023685B695B0701D5002012E02046FFF75C
:100FA0004FFFA8B96A1CF3D065B9236C202243F027
:100FB0002003236400230320236384F83C3084F857
:100FC0003D2070BDFFF7F2FD801BA842E0D9ECE7A1
:100FD0000120F6E770B504460D46164623685B69A6
:100FE0001B0601D5002012E02046FFF729FFA8B913
:100FF0006A1CF3D065B9236C202243F020032364DC
:1010000000230320236384F83C3084F83D2070BD26
:10101000FFF7CCFD801BA842E0D9ECE70120F6E702
:101020002DE9F043154602689946136885B043F4EC
:1010300080731360DDE90C780E463B4600224FF0CA
:101040000111CDF800800446FFF70EFF18B1032010
:1010500005B0BDE8F083236806F0FE061E613A463F
:10106000434620461849FFF72DFF20B1236C042B7F
:10107000EDD10120ECE7236803905A6939460392C9
:101080009B69424603932046039BFFF7A3FF40B1B1
:10109000236C042BDBD12268136843F400731360C4
:1010A000E7E7B9F1010F236802D1EDB21D61CFE787
:1010B0002A0A1A61394642462046FFF78BFF00286C
:1010C000E6D12368F1E700BF020001002DE9FF47E8
:1010D0009A46DDE90C78036815461A680E4642F414
:1010E00080621A601A684FF0011142F480721A602F
:1010F0003B460022CDF800800446FFF7B5FE18B14C
:10110000032004B0BDE8F08723685FFA86F906F093
:10111000FE061E613A46434620462A49FFF7D2FEA4
:1011200020B1236C042BEBD10120EAE72368039064
:101130005A69394603929B69424603932046039BB2
:10114000FFF748FF40B1236C042BD9D12268136804
:1011500043F400731360E7E7BAF1010F236825D168
:10116000EDB24246394620461D61FFF733FF024685
:101170000028E8D1216820460B6843F480730B6097
:101180003B464FF00111CDF80080FFF76DFE0028BF
:10119000B6D1226849F001031361204643463A461E
:1011A0000849FFF78FFE0028ABD0BAE72A0A1A6178
:1011B000394642462046FFF70DFF0028C3D1236879
:1011C000CEE700BF0200010070B5044608B9012057
:1011D00070BD90F83D3003F0FF021BB980F83C2051
:1011E00001F062F82423226884F83D30136823F06C
:1011F0000103136000F070FD314A6368934294BFAD
:10120000304A314A90428CBF00220122002ADED1AE
:101210002B4D2E4AAB42B0FBF2F288BF4FF49676CC
:10122000216800F1FF304A6082BF72434FF47A7642
:10123000B2FBF6F2AB4202F101020A6223D85B0074
:10124000B0FBF3F040F6FC72431C134233D0C3F3FF
:101250000B03CB61D4E9073213430B60D4E90323BA
:1012600013438B60D4E905321343CB600B68002035
:1012700043F001030B602023206484F83D30206399
:1012800084F83E00A4E7A26852B903EB4303B0FB25
:10129000F3F30133C3F30B037BB143F40043D8E70B
:1012A00019225343B0FBF3F30133C3F30B0323B110
:1012B00043F44043CDE70423CBE70123C9E700BF54
:1012C000A08601007F841E00FF083D0040420F0001
:1012D0002DE9F043044685B098460D4691460C9F93
:1012E000FFF764FC94F83D300646202B04D002251D
:1012F000284605B0BDE8F08300901923012220465E
:101300005D49FFF7B1FD0028F1D194F83C30012B85
:10131000EDD00123216884F83C300B68DB075EBF09
:101320000B6843F001030B600B6823F400630B6050
:10133000212384F83D30102384F83E3000232364B9
:10134000A3F58033A4F82A80E362638DC4F8249067
:101350002385E36A042B04D0012B02D013F5803FD0
:1013600004D10B6843F480730B6002E0236B122BF3
:10137000F7D03B4600224FF0011120460096FFF7C0
:1013800073FD002833D123692268B3F5804F20D143
:1013900005F0FE05156133463A4620463749FFF70A
:1013A00091FD054610BB236803905A6903929B691F
:1013B0000393039B238D3BBB21680A6842F40072B0
:1013C0000A60202284F83C3084F83D2084F83E30C6
:1013D0008EE7EB1103F0060343F0F00313612046A0
:1013E00033463A462649FFF76DFD48B1236C236C1E
:1013F000042B4FF0000384F83C300ED1012577E731
:101400002368EDB21D61C6E7324639462046FFF734
:10141000E1FD20B1236C042B27D0032568E7616A26
:1014200020684B1C63620B78228D0361638D013B46
:101430009BB26385D0F814C0531E9BB21CF0040FFE
:1014400023850AD04BB18B1C63624B78023A03614F
:10145000638D2285013B9BB2638532463946204627
:10146000FFF792FD0028A5D0D4E72268136843F463
:1014700000731360C2E700BF020010000200010009
:10148000080001002DE9F34704469A468846914634
:101490000C9EFFF78BFB94F83D300546202B03D0C4
:1014A000022002B0BDE8F0870090192301222046F7
:1014B0003D49FFF7D9FC0028F2D194F83C30012BCC
:1014C000EED00123206884F83C3003680027DA0757
:1014D00058BF03684A465CBF43F0010303600368DA
:1014E000414623F400630360212384F83D30402308
:1014F00084F83E300A9B27646362BDF82C30204696
:1015000063852A4BCDE90065E362638D23855346ED
:10151000FFF786FD00282AD0236C84F83C70042B4A
:1015200007D10120BDE7FFF755FD20B1236C042B47
:1015300034D00320B5E7616A27684B1C63620B78DF
:10154000228D3B61638D501E013B9BB263857B699D
:1015500080B25B0720850AD548B18B1C63624B784B
:10156000023A3B61638D2285013B9BB26385238DEB
:101570002A4631462046002BD5D1FFF705FD00282D
:10158000D4D12268136843F400731360202384F8D5
:101590003C0084F83D3084F83E0082E722681368FE
:1015A00043F400731360BCE7020010000000FFFF6B
:1015B0002DE9F047044686B09A460D469146109FA5
:1015C000FFF7F4FA94F83D300646202B04D00225AC
:1015D000284606B0BDE8F087009019230122204676
:1015E0007E49FFF741FC0028F1D194F83C30012BF3
:1015F000EDD00123206884F83C3003684FF00008E8
:10160000D90758BF036829465CBF43F00103036054
:1016100003684A4623F400630360222384F83D30C4
:10162000402384F83E300E9BC4F840806362BDF8CE
:101630003C30204663856A4BCDE90076E362638DDA
:1016400023855346FFF742FD054630B1236C84F8ED
:101650003C80042B58D10125BAE7228D2368B2B90A
:1016600002905A6902929A690292029A1A6842F4A6
:1016700000721A60DFF86C81238D002B37D1202295
:1016800084F83C3084F83D2084F83E30A0E7012AFD
:1016900011D11A6822F480621A6072B6236803902E
:1016A0005A6903929A690392039A1A6842F4007283
:1016B0001A6062B6DEE7022A1A680ED142F40062AE
:1016C0001A6072B6236804905A6904929A69049267
:1016D000049A1A6822F48062EAE742F480621A608F
:1016E00005905A6905929B690593059BC2E7032BF8
:1016F0005AD8012B0AD1324639462046FFF717FC4B
:1017000018B3236C202BA6D1032561E7022B4FF0E1
:1017100000023B4641462046009624D1FFF7A4FB39
:101720000028F1D172B623681A6842F400721A6078
:101730001A69636A591C61621A70238D013B238503
:10174000638D013B9BB2638562B623681A69636A45
:10175000591C61621A70238D013B2385638D013B07
:101760009BB2638588E7FFF77FFB02460028CBD159
:1017700021680B6823F480630B6072B623681969D3
:10178000636A581C60621970238D4146013B2385B2
:10179000638D2046013B9BB2638500963B46FFF775
:1017A00063FB0028BFD0AFE7324639462046FFF73B
:1017B000BEFB0028A5D123681A69636A591C6162BF
:1017C0001A70238D013B2385638D013B9BB263859A
:1017D00023685A6952077FF54FAFB7E70200100040
:1017E0000000FFFF0400010003682DE9F341DB075F
:1017F000054610D42B689F075ED42B68190700F1AB
:1018000095802B685A0700F1C180EA69002A40F0F0
:101810002D81002014E0914C636803F00C03042B2D
:1018200007D0636803F00C03082B0CD16368DE0358
:1018300009D523689C03DDD56B68002BDAD1012024
:1018400002B0BDE8F0816B68B3F5803F10D123682A
:1018500043F480332360FFF7A9F906462368980311
:10186000C8D4FFF7A3F9801B6428F7D90320E7E762
:101870009BB9236823F480332360236823F48023F7
:101880002360FFF793F9064623689903B2D5FFF763
:101890008DF9801B6428F7D9E8E7B3F5A02F2368FA
:1018A00003D143F480232360D1E723F48033236002
:1018B000236823F48023CDE7684C636813F00C0F92
:1018C00007D0636803F00C03082B10D16368DA03B8
:1018D0000DD423689B0702D52B69012BAFD1236858
:1018E0006A6923F0F80343EAC203236085E72A69A3
:1018F0005B4B6AB101221A60FFF758F9064623686C
:101900009F07ECD4FFF752F9801B0228F7D9ADE707
:101910001A60FFF74BF90646236898077FF56DAF0D
:10192000FFF744F9801B0228F6D99FE7AA694B4EBE
:101930004B4BE2B10122C3F88024FFF737F904468C
:10194000736A9B070DD54FF4FA52464B1B68B3FBE5
:10195000F2F3019300BF019B5A1E0192002BF9D1B3
:101960004FE7FFF723F9001B0228E9D97EE7C3F808
:101970008024FFF71BF90446736A9F077FF541AF88
:10198000FFF714F9001B0228F6D96FE7334CE3691F
:10199000D80024D40127E36943F08053E361E3696D
:1019A00003F080530093009B2F4E3368D90518D560
:1019B000EB68012B26D1236A43F001032362FFF772
:1019C000F5F841F288380646236A9B073FD5002F79
:1019D0003FF41BAFE36923F08053E36115E7002771
:1019E000E2E7336843F480733360FFF7DFF8804643
:1019F0003368DA05DCD4FFF7D9F8A0EB08006428D7
:101A0000F6D933E7ABB9236A41F2883823F00103F2
:101A10002362236A23F004032362FFF7C7F8064614
:101A2000236A9807D3D5FFF7C1F8801B4045F7D943
:101A30001CE7052B236A03D143F004032362BAE7B2
:101A400023F001032362236A23F00403B6E7FFF7C0
:101A5000ADF8801B4045B7D908E700BF0010024031
:101A6000000042420800002000700040234C6368E0
:101A700003F00C03082B3FF4E2AE022A4FF0000201
:101A80001F4B1A662CD1FFF791F80646236899017F
:101A900020D42B6AB3F5803F05D16268A96822F48F
:101AA00000320A436260696A62680B4322F474126E
:101AB000134301226360124B1A66FFF777F805465D
:101AC00023689A013FF5A5AEFFF770F8401B022886
:101AD000F6D9CBE6FFF76AF8801B0228D6D9C5E60F
:101AE000FFF764F8054623689B017FF592AEFFF788
:101AF0005DF8401B0228F6D9B8E600BF001002408E
:101B00000000424230B5184B87B002AC03F110051B
:101B1000224618685968083303C2AB421446F7D10D
:101B200040F201231149ADF804304B6803F00C0278
:101B3000082A17D1C3F3834218326A44DB0312F830
:101B4000100C0CD54B680A4AC3F34043504318337A
:101B50006B4413F8143CB0FBF3F007B030BD054BF9
:101B60005843FAE70248F8E7D05200080010024054
:101B700000127A0000093D00534A2DE9F041136834
:101B8000044603F007038B420D4628D321688E07D5
:101B900032D4CA0745D44C4A136803F00703AB425A
:101BA0007FD82268494D12F0040F40F0858013075A
:101BB00006D56B68226923F4605343EAC2036B6065
:101BC000FFF7A0FF6B68424AC3F30313D35CD8400E
:101BD000404B18600020FEF7A7FF00200AE01368C2
:101BE00023F007030B431360136803F007038B42D2
:101BF000CCD00120BDE8F081344B11F0040F1EBFA2
:101C00005A6842F4E0625A60080742BF5A6842F4D8
:101C100060525A605A68A06822F0F00202435A608B
:101C2000B7E76268294E012A33681BD113F4003FDD
:101C3000DFD0736841F2883823F0030313437360E5
:101C4000FEF7B4FF63680746012B13D1736803F0F6
:101C50000C03042B9FD0FEF7A9FFC01B4045F5D90C
:101C60000320C7E7022A02D113F0007FE0E713F058
:101C7000020FDDE7022B0FD1736803F00C03082B72
:101C800089D0FEF793FFC01B4045F5D9E8E7FEF782
:101C90008DFFC01B4045E3D8736813F00C0FF6D1DD
:101CA00079E7136823F007032B431360136803F0ED
:101CB0000703AB429DD174E76B68E16823F4E063EE
:101CC0000B436B6073E700BF00200240001002402E
:101CD0001553000808000020044B054A5B68C3F355
:101CE0000223D35C034A1068D840704700100240BA
:101CF00025530008080000201FB500F0F003000184
:101D000043F00C02C0B243F008038DF80D3040F0F0
:101D10000C038DF80E30642340F008008DF80C2081
:101D20008DF80F0000934E21042303AA0248FFF709
:101D3000CFFA05B05DF804FB240200201FB500F0C7
:101D4000F003000143F00D02C0B243F009038DF827
:101D50000D3040F00D038DF80E30642340F0090083
:101D60008DF80C208DF80F0000934E21042303AA58
:101D70000248FFF7ADFA05B05DF804FB240200202D
:101D800010B50020FFF7B8FF64242020FFF7D6FF2E
:101D9000013CFAD110BD08B53220FEF70DFF30200E
:101DA000FFF7AAFF0520FEF707FF3020FFF7A4FF8B
:101DB0000120FEF701FF3020FFF79EFF0A20FEF70B
:101DC000FBFE2020FFF798FF0A20FEF7F5FE2820F3
:101DD000FFF792FF0120FEF7EFFE0820FFF78CFFD0
:101DE0000120FEF7E9FE0120FFF786FF0120FEF744
:101DF000E3FE0120FEF7E0FE0620FFF77DFF012055
:101E0000FEF7DAFEBDE808400C20FFF775BF10B5FD
:101E1000441E14F8010F00B910BDFFF78FFFF8E75B
:101E20002DE9F04101244FF47A774FF0000886B095
:101E3000194D0DF1170623466B22D0212846CDE916
:101E4000014700968DF81780FFF71CFB0723192226
:101E50008DF81730D02123462846CDE9014700965A
:101E6000FFF710FB23461C22D0212846CDE901476D
:101E700000968DF81780FFF705FB23461B22D02123
:101E80002846CDE9014700968DF81780FFF7FAFA4A
:101E900006B0BDE8F08100BF2402002006234FF405
:101EA0007A7230B587B0CDE9013204AB00933B22A2
:101EB0000123D0211B48FFF77BFBBDF810001A4B14
:101EC00040BA1880BDF81230184A5BBA13801DB2B0
:101ED000BDF81430164A5BBA138000B21CB2FEF78C
:101EE00091FA0022134BFEF7F7FAFEF7CDFD124BE5
:101EF00018602846FEF786FA00220E4BFEF7ECFA31
:101F0000FEF7C2FD0D4B18602046FEF77BFA00225B
:101F1000084BFEF7E1FAFEF7B7FD094B186007B072
:101F200030BD00BF24020020FC010020FE01002083
:101F3000000200200000103F0402002008020020E0
:101F40000C0200200000000006234FF47A7230B526
:101F500087B0CDE9013204AB009343220123D021A5
:101F60001F48FFF725FBBDF810001E4B40BA188034
:101F7000BDF812301C4A5BBA13801DB2BDF8143094
:101F80001A4A5BBA138000B21CB2FEF73BFA12A3E6
:101F9000D3E90023FEF7CAFBFEF776FD144B186069
:101FA0002846FEF72FFA0CA3D3E90023FEF7BEFB69
:101FB000FEF76AFD0F4B18602046FEF723FA06A3D2
:101FC000D3E90023FEF7B2FBFEF75EFD0A4B186073
:101FD00007B030BDAFF3008000000000006060403B
:101FE00024020020180200201A0200201C020020F7
:101FF00010020020140200202002002010B514243A
:1020000090B02246002108A800F076FA224600216E
:1020100001A800F071FA022401224FF48033CDE9C7
:102020000623CDE90D434FF4E01306A80A920F935F
:10203000FFF7DAFB0F234FF48062CDE90134002370
:10204000214601A8CDE903320593FFF795FD10B0B5
:1020500010BD00001FB54FF480450024FEF788FD39
:10206000FFF7CCFF684B69489A69694E42F020023D
:102070009A619A6902F020020192019A9A6942F0EB
:1020800008029A619A6902F008020292029A9A6919
:1020900042F004029A619B695E4A03F004030393D1
:1020A000039B5D4BC0E90454C0E90023C0E902442E
:1020B000C0E906440462FFF787F85849584B59486D
:1020C000C0E90013C0E90454C0E90244C0E9064471
:1020D0000462FFF779F8FFF75EFEFFF7A1FE5248B2
:1020E000FFF795FE4FF47A70FEF766FDFFF748FEA6
:1020F000DA20FFF701FE4D48FFF789FE4C4C4D4DAD
:10210000FFF7CCFEFFF720FF8020FFF7F5FD3046FC
:10211000FFF77DFE484B1868FEF786F902460B462E
:102120006846214600F050FE6846FFF770FE2846DC
:10213000FFF76DFEC020FFF7DFFD4048FFF767FEA9
:102140003F4B1868FEF770F902460B466846214679
:1021500000F03AFE6846FFF75AFE2846FFF757FEA2
:102160009420FFF7C9FD3748FFF751FE364B18683A
:10217000FEF75AF902460B466846214600F024FE57
:102180006846FFF744FE2846FFF741FE8A20FFF726
:10219000B3FD2E48FFF73BFE2D4B1868FEF744F9C0
:1021A00002460B466846214600F00EFE6846FFF7E1
:1021B0002EFECA20FFF7A0FD2648FFF728FE264B7B
:1021C0001868FEF731F902460B466846214600F0D2
:1021D000FBFD6846FFF71BFE9E20FFF78DFD1F48A5
:1021E000FFF715FE1E4B1868FEF71EF902460B4658
:1021F0006846214600F0E8FD6846FFF708FEFA2031
:10220000FEF7DAFC7CE700BF001002402402002049
:10221000F552000800540040801A060000580040A3
:10222000A086010078020020E1520008ED5200086B
:10223000F9520008FE520008040200200153000871
:1022400008020020055300080C0200200953000872
:10225000100200200D530008140200201153000842
:10226000200200200E4B82B09A6942F001029A616E
:102270009A6902F001020092009ADA6942F08052F3
:10228000DA61DB69074A03F080530193019B5368CD
:1022900023F0E06343F00073536002B0704700BF67
:1022A0000010024000000140102210B5044688B022
:1022B0000DEB0200002100F01FF92368214A934230
:1022C0001ED1214CC021A369204843F00803A3611B
:1022D000A36903F008030093009B1223CDE90413C4
:1022E000032304A90793FEF7D1FCE36943F4001329
:1022F000E361E36903F400130193019B08B010BD8F
:10230000134A9342FAD1104C4FF44062A3690F482C
:1023100043F00803A361A36904A903F0080302932F
:10232000029B1223CDE9042303230793FEF7AEFC9F
:10233000E36943F48003E361E36903F480030393F7
:10234000039BDBE70054004000100240000C0140FA
:10235000005800407047FEE7FEE7FEE7FEE77047E3
:1023600070477047FEF716BC0120704708B500F0B3
:1023700099F8162303604FF0FF3008BD08B500F050
:1023800091F816230360FEE770B50D4614460E461D
:10239000731B9C4201DC204670BDAFF3008006F841
:1023A000010BF5E770B50D4614460E46731B9C42B3
:1023B00001DC204670BD16F8010BAFF30080F5E795
:1023C0000A4A08B51168034609B909491160694606
:1023D000106803448B4206D900F064F80C230360B4
:1023E0004FF0FF3008BD1360FCE700BFCC020020B7
:1023F000E00200204FF0FF3070474FF40053002000
:102400004B60704701207047002070470F4B1A68DF
:1024100042F001021A6059680D4A0A405A601A686F
:1024200022F0847222F480321A601A6822F4802228
:102430001A605A6822F4FE025A604FF41F029A6032
:102440004FF00062034B9A60704700BF00100240DB
:102450000000FFF800ED00E0002103E00B4B5B58AB
:10246000435004310A480B4B42189A42F6D30A4AA9
:1024700002E0002342F8043B084B9A42F9D3FFF7ED
:10248000C5FF00F015F8FFF7E5FD70471457000889
:1024900000000020DC010020DC010020E002002020
:1024A000FEE70000014B1868704700BF0C000020D9
:1024B00070B500260C4D0D4C641BA410A64209D12A
:1024C00002F0FAFE00260A4D0A4C641BA410A64234
:1024D00005D170BD55F8043B98470136EEE755F835
:1024E000043B98470136F2E70C5700080C570008E8
:1024F0000C5700081057000803460244934200D1CD
:10250000704703F8011BF9E7002B2DE9F0471F4640
:10251000BBBF03F100431F4600232D2388B01446A0
:10252000129A109D1370149BDDF84CA023F0200824
:10253000B8F1460F05D0B8F1450F00D1013502239F
:1025400000E0032307AA049206AACDE902A2CDE97E
:10255000003522463B4600F0E3FCB8F1470F064643
:1025600002D1119BDB0722D5B8F1460F06EB050916
:1025700010D13378302B0AD100220023204639466F
:10258000FEF712FA18B9C5F10105CAF80050DAF8D9
:10259000003099440022002320463946FEF704FA11
:1025A00008B1CDF81C903022079B4B4507D330462D
:1025B000079B159A9B1B136008B0BDE8F087591C58
:1025C00007911A70F0E70346F7B5002903F8022BCC
:1025D000B6BF2D222B224942092942702BDD0DF175
:1025E0000704A4460A2791FBF7F60A46A64607FB0E
:1025F0001615632A05F13005314604F1FF340EF853
:10260000015CF0DC3031AEF1020504F8011C294612
:10261000441C61450AD30DF10902A2EB0E02654587
:1026200088BF00221344181A03B0F0BD11F8012B23
:1026300004F8012FEDE7302330318370C170031DA2
:10264000F1E700002DE9F04F91B00C46DDF868800D
:1026500016461F46054601F051FA036818460993CD
:10266000FDF776FD00230E93D8F800300A9007336B
:1026700023F0070303F1080294F81890D4F800B08F
:10268000C8F80020D3E90023C4E91223D4E9128A50
:102690002AF000430B934FF0FF3240469C4B0B99BE
:1026A000FEF7B4F970BB4FF0FF324046984B0B99E0
:1026B000FEF78EF930BB0022002340465146FEF75C
:1026C0007DF910B12D2384F84330924B9248B9F133
:1026D000470F94BF9846804603234FF0000A2361BA
:1026E0002BF00403236033462146284600970FAAA7
:1026F00000F0D4F9013040F090804FF0FF3011B07D
:10270000BDE8F08F4246534640465146FEF77EF9FB
:1027100048B1BAF1000FB8BF2D238048B8BF84F884
:1027200043307F4BD3E7636809F0DF015A1C42D185
:1027300006236360002206920EAACDE904920DAA38
:102740004BF4806303920DF13302CDE90132236033
:10275000636842460093284653460B91FFF7D4FE28
:102760000B99804647290D9908D1C81C02DB636884
:10277000994240DDA9F102095FFA89F9B9F1650FC3
:102780001FD84A46013904F150000D91FFF71BFF95
:102790000E9A82461318012A236102DC2268D207AE
:1027A00001D5013323619DF83330002B9BD02D23BD
:1027B00084F8433097E74729BCD1002BBAD10123D5
:1027C000B7E7B9F1660F18D1002963680BDD216105
:1027D00013B92268D00702D501330B4423614FF0AF
:1027E000000AA165DFE713B92268D20701D50233D9
:1027F000F4E70123F2E74FF067090E9B994205DBEE
:1028000023682161D807EAD54B1CE7E70029CCBF34
:102810000122C1F102021344E0E723685A0507D4FC
:102820002369424631462846B84701302BD164E738
:10283000B9F1650F40F2DD80D4E9120100220023D6
:10284000FEF7B2F8002833D0012331462846354A36
:10285000B84701303FF451AFDDE90D239A4202DB66
:102860002368D8070FD5DDE9092331462846B84744
:1028700001303FF442AF4FF0000804F11A090E9BFB
:10288000013B434509DC23689B0700F10281E068B6
:102890000F9B9842B8BF184631E701234A4631469C
:1028A0002846B84701303FF428AF08F10108E6E7B1
:1028B0000D9B002B38DC012331462846194AB847C6
:1028C00001303FF41AAFDDE90D23134302D1236831
:1028D000D907D8D5DDE9092331462846B847013064
:1028E0003FF40BAF4FF0000904F11A0A0D9B5B4255
:1028F0004B4501DC0E9B94E70123524631462846A6
:10290000B84701303FF4F9AE09F10109EEE700BF25
:10291000FFFFEF7F3453000838530008405300088E
:102920003C530008F35200080E9AA36D9A42A8BFC8
:102930001A46002A914637DC4FF0000B29EAE97964
:1029400004F11A02D4F858A0AAEB09035B4533DC62
:10295000DDE90D239A423BDB2368DA0738D40E9B6E
:102960000D99A3EB0A02A3EB01099145A8BF91467B
:10297000B9F1000F34DC4FF0000829EAE97904F1DD
:102980001A0ADDE90D239B1AA3EB090343457FF7E0
:102990007AAF0123524631462846B84701303FF40A
:1029A000ACAE08F10108ECE7134631464246284632
:1029B000B8470130C0D1A0E60123314628460B922A
:1029C000B84701303FF499AE0B9A0BF1010BB9E710
:1029D0003146DDE909232846B8470130BFD18CE6EE
:1029E0004B463146284608EB0A02B8470130C2D1AF
:1029F00083E60E9A012A01DCDB0737D50123424624
:102A000031462846B84701303FF477AEDDE9092367
:102A100031462846B84701303FF46FAED4E9120181
:102A200000220023FDF7C0FFD8B90E9B08F1010278
:102A3000013B31462846B84701300ED15DE60123FF
:102A40004A4631462846B84701303FF456AE08F1B1
:102A500001080E9B013B4345F1DC534604F1500253
:102A6000E0E64FF0000804F11A09F2E701234246BC
:102A7000DFE701234A4631462846B84701303FF494
:102A80003CAE08F10108E3680F995B1A4345F0DC9E
:102A9000FDE64FF0000804F11909F4E72DE9F047CD
:102AA000164699468A680B6907469342B8BF134693
:102AB000336091F843200C46DDF820800AB10133E1
:102AC00033602368990642BF336802333360256858
:102AD00015F0060506D104F1190AE36832689B1A5D
:102AE000AB4228DC94F84320131E226818BF012350
:102AF00092062DD44946384604F14302C0470130BE
:102B000020D02368E56803F00603042B18BF0025D6
:102B100032684FF00006A36808BFAD1A226908BFEB
:102B200025EAE5759342C4BF9B1AED181A34B542E5
:102B30001AD1002008E00123524649463846C047D2
:102B4000013003D14FF0FF30BDE8F0870135C4E715
:102B50003020E11881F843005A1C94F845102244B3
:102B6000023382F84310C5E701232246494638461E
:102B7000C0470130E6D00136D9E700002DE9FF4714
:102B80000F7E9146782F80460C469A460C9D01F1A7
:102B9000430207D8622F0AD8002F00F0D980582F9F
:102BA00000F0A48004F1420584F842703AE0A7F1F5
:102BB0006303152BF6D801A151F823F0152C00085A
:102BC000292C0008A52B0008A52B0008A52B000820
:102BD000A52B0008292C0008A52B0008A52B000810
:102BE000A52B0008A52B0008372D0008592C00083C
:102BF000192D0008A52B0008A52B0008592D000849
:102C0000A52B0008592C0008A52B0008A52B0008AF
:102C1000212D00082B681A1D1B682A6004F142054B
:102C200084F842300123A4E020682968060601F1F7
:102C300004030AD50E682B60002E03DA2D2376429A
:102C400084F843300A235E4819E00E6810F0400F04
:102C50002B6018BF36B2EFE72B682068191D29607A
:102C6000010601D51E6802E04606FBD51E886F2FBF
:102C70000CBF08230A235248002184F843106568DA
:102C8000002DA8BF2168A560A4BF21F00401216028
:102C90000EB9002D4DD01546B6FBF3F103FB1167BD
:102CA000C75D05F8017D3746BB420E46F4D9082BB7
:102CB0000BD12368DE0708D5236961689942DEBF1E
:102CC000302305F8013C05F1FF35521B22614B46CC
:102CD00021464046CDF800A003AAFFF7DFFE0130F1
:102CE0004CD14FF0FF3004B0BDE8F087344881F894
:102CF00045702968236851F8046B29601D0614D5B6
:102D0000DF0744BF43F0200323601EB9236823F08C
:102D1000200323601023AFE7236843F020032360E0
:102D20007823284884F84530E3E7590648BFB6B20F
:102D3000E6E71546BBE72B682668181D6169286021
:102D400035061B6801D5196002E07006FBD51980B5
:102D5000002315462361BAE72B6800211A1D2A605B
:102D60001D686268284600F0D5FE08B1401B60600F
:102D700063682361002384F84330A8E72A46494664
:102D800040462369D0470130ABD023689B0713D45A
:102D9000E068039B9842B8BF1846A4E70123324677
:102DA00049464046D04701309BD00135E36803993E
:102DB0005B1AAB42F2DCEBE7002504F11906F5E7FC
:102DC00044530008555300080EB46FF0004100B59D
:102DD0009CB01DAB029006900791049108480949E8
:102DE00053F8042B0591006802A9019301F07CFBC4
:102DF0000022029B1A701CB05DF804EB03B0704710
:102E00000C0000200802FFFF2DE9F74F03690C6951
:102E10000746A342C0F28280013C00F1140501F193
:102E2000140805EB8403019358F8243055F8242046
:102E300001339A42B2FBF3F64FEA840B08EB8409A4
:102E400031D34FF0000E4046AC46F24650F8042B0A
:102E500093B206FB03E3120C4FEA134E9BB206FB40
:102E600002E2AAEB0303DCF800A04FEA124E1FFABD
:102E70008AFA5344DCF800A092B2C2EB1A4202EB89
:102E800023429BB243EA024381454FEA224A4CF86F
:102E9000043BDBD255F80B302BB9019B043B9D4220
:102EA0001A462FD33C61384601F0CEF8002825DBC6
:102EB00028464FF0000C013658F8041BD0F800E00B
:102EC0008BB2ACEB03031FFA8EF213440A0CC2EB75
:102ED0001E4202EB23429BB243EA0243C1454FEA42
:102EE000224C40F8043BE7D255F8242005EB84033C
:102EF00022B9043B9D421A460AD33C61304603B0D6
:102F0000BDE8F08F1268043B002ACBD1013CC6E734
:102F10001268043B002AF0D1013CEBE70020EEE709
:102F20002DE9F04F16461F46446A99B00546CDE993
:102F30000467DDF8948074B9102000F0E3FD0246C8
:102F4000686220B9EA21A84BA84801F0DDFBC0E97E
:102F500001440460C4606B6A196851B15A68012366
:102F600093404A608B60284600F030FE00226B6A76
:102F70001A603B1EAFBF0023012223F000430593DC
:102F8000A8BFC8F80030DDF81490994BB8BFC8F856
:102F9000002033EA090319D142F20F73249A136017
:102FA000C9F31303334300F07F85269B53B9914B3C
:102FB00022E0914B03930833269A1360039819B0CB
:102FC000BDE8F08F8B4B03930333F5E7DDE9043461
:102FD000CDE90C34DDE90C0100220023FDF7E4FC0F
:102FE000804658B10123249A1360269B002B00F0E1
:102FF000588582481860431E0393DFE716AB0193A0
:1030000017AB00932846DDE90C2301F0C5F8C9F39E
:103010000A548346002C7FD0DDE90C010D9BA4F2FD
:10302000FF34C3F3130343F07F5141F44011CDF853
:103030004C800022724BFDF797F865A3D3E900237B
:10304000FDF74AFA64A3D3E90023FDF78FF806469B
:1030500020460F46FDF7D6F961A3D3E90023FDF71B
:103060003BFA02460B4630463946FDF77FF80646E6
:103070000F46FDF7E1FC0022824600233046394628
:10308000FDF79CFC48B15046FDF7BCF932463B4683
:10309000FDF78AFC08B90AF1FF3ABAF1160F58D8C1
:1030A000DDE90C01574B03EBCA03D3E90023FDF71D
:1030B00085FC00284FD000230AF1FF3A0F93169B9E
:1030C0001C1B631E099349BFC4F10103002306932F
:1030D000002354BF06930993BAF1000F3DDB099B0F
:1030E000CDF838A05344099300230A93229B092B5F
:1030F00000F28C80052BC4BF043B2293229BC8BFE7
:103100000024A3F10203D8BF0124032B00F28A801C
:10311000DFE803F02D4F4D5BDDE916431C4404F25C
:103120003243202BC3BFC3F1400304F2124009FA1B
:1031300003F3C3F12003C6BF26FA00F0184306FAD2
:1031400003F0FDF74FF90123A1F1F871013C13934E
:103150006FE70123B2E70F90B1E7069BA3EB0A03E9
:103160000693CAF100030A9300230E93BEE70023DF
:103170000B93239B002B58DC4FF001094B46CDF8F5
:103180002090CDF88C900022686A4260042202F1FF
:1031900014069E4241684ED9284600F0D7FC0390A1
:1031A00000284CD102464FF4D571174BCCE60123D1
:1031B000DEE700230B93239B0AEB030909F10103CC
:1031C000012B0893B8BF0123DDE70123F2E700BF1D
:1031D00061436F63A787D23FB3C8608B288AC63F1D
:1031E000FB799F501344D33F735300088A53000860
:1031F0000000F07F6F53000866530008F452000887
:103200000000F83F80540008E55300080124002323
:103210000B9422934FF0FF3900221223CDF8209017
:103220002392B0E701230B93F4E7DDF88C904B4633
:10323000CDF82090A7E7013141605200A7E76B6A03
:10324000039A1A60089B0E2B00F2A880002C00F055
:10325000A580BAF1000F34DD9A4A0AF00F0302EBA1
:10326000C3031AF4807FD3E90034CDE910344FEA68
:103270002A1416D0DDE90C01934B0327D3E9082368
:10328000FDF754FACDE9040104F00F048E4E54B951
:10329000DDE91023DDE90401FDF748FACDE9040179
:1032A00029E00227F2E7E10708D5DDE91001D6E9B8
:1032B0000023FDF711F9CDE910010137641008363C
:1032C000E5E700F0A580DDE90C01CAF100047D4BC3
:1032D00004F00F0203EBC203D3E90023FDF7FCF86F
:1032E00002270023CDE90401774E2411002C40F081
:1032F0008480002BD2D10F9B002B00F08B80DDE966
:103300000434CDE91034DDE9100100226F4BFDF7E4
:1033100055FB00287ED0089B002B7BD0B9F1000F15
:1033200038DDDDE910010022694BFDF7D5F84C4688
:10333000CDE904010AF1FF3801373846FDF762F89C
:10334000DDE90423FDF7C8F80022624BFCF70EFF0D
:10335000A1F15076CDE910011196002C5DD1DDE987
:10336000040100225C4BFCF7FFFE02460B46CDE950
:1033700004233346109AFDF73FFB002840F09C825F
:10338000DDE90401109A06F10043FDF717FB002860
:1033900040F09082DDE90C34CDE90434179B002B1A
:1033A000C0F25281BAF10E0F00F34E81454B03EB90
:1033B000CA03D3E90034CDE90634239B002B80F205
:1033C000DB80089B002B00F3D78040F07282DDE9A0
:1033D00006010022404BFDF77FF8DDE90423FDF7ED
:1033E00001FB089C2646002840F048823123039FB9
:1033F0000AF1010A07F8013B44E2E20705D5D6E9E4
:103400000023FDF769F801230137641008366DE7E2
:10341000022770E7D046089C8FE70399294B214487
:1034200012910B9903EBC403DDE9106753E9022302
:10343000002955D000202949FDF778F93B4632464E
:10344000FCF792FECDE91001039FDDE90401FDF7D1
:10345000F3FA0446FCF7D6FF02460B46DDE9040109
:10346000FCF782FE02460B463034CDE90423DDE949
:10347000102307F8014BFDF7A1FA002874D1DDE90C
:10348000042300201149FCF76FFEDDE91023FDF74E
:1034900095FA002840F0B780129B9F423FF47AAF24
:1034A000DDE9100100220A4BFDF716F80022CDE9F4
:1034B0001001DDE90401064BFDF70EF8CDE904012A
:1034C000C3E700BF80540008585400080000F03FD4
:1034D0000000244000001C40000014400000E03FB9
:1034E00030463946FCF7F8FF129BCDE91001039CEA
:1034F0001493DDE90401FDF79FFA1590FCF782FFB4
:1035000002460B46DDE90401FCF72EFE159B06463C
:10351000303304F8013B129B0F469C424FF00002EF
:1035200024D1DDE91001B04BFCF720FE02460B462A
:1035300030463946FDF760FA002863D1DDE91023F3
:103540000020A949FCF710FE02460B4630463946DA
:10355000FDF734FA00283FF41DAF149F7B1E14932F
:1035600017F8013C302BF8D0C2463BE09F4BFCF7EC
:10357000B3FFCDE90401BCE7039FDDE90489DDE980
:10358000062340464946FDF7D1F8FDF755FA0446B3
:10359000FCF738FFDDE90623FCF79EFF02460B46E9
:1035A00040464946FCF7E0FD04F1300607F8016BA0
:1035B000039EDDF820C0BE1BB44502460B4636D143
:1035C000FCF7D4FDDDE9062380468946FDF714FAB1
:1035D00058BBDDE9062340464946FDF7E5F908B149
:1035E000E10722D42846594600F0F0FA00233B7048
:1035F000249B0AF101001860269B002B3FF4DEACEF
:103600001F60DBE427463B461F4613F8012D392A8D
:1036100007D1039A9A42F7D13022039908F10108A1
:103620000A701A7801321A709EE7D046EBE7002242
:103630006E4BFCF751FF0022002380468946FDF7C0
:10364000B3F900289BD0CDE70B9A002A00F0D08078
:10365000229A012A00F3AE80139A002A00F0A68075
:1036600003F233430A9C069F069A01211A440692EC
:10367000099A28461A44099200F05EFB0646002F7C
:103680000CDD099B002B09DDBB42A8BF3B46069A17
:10369000FF1AD21A0692099AD31A09930A9BF3B118
:1036A0000B9B002B00F0A880002C10DD3146224639
:1036B000284600F0FFFB5A4601460646284600F021
:1036C00051FB80465946284600F080FAC3460A9BC3
:1036D0001A1B04D05946284600F0ECFB8346012112
:1036E000284600F029FB0E9B0446002B40F3868001
:1036F0001A460146284600F0DDFB229B0446012BBA
:103700007FDD4FF00008236904EB8303186900F0A4
:10371000C5FAC0F12000099B184410F01F0000F00A
:103720009280C0F12003042B40F38A80C0F11C007A
:10373000069B074403440693099B03440993069B95
:10374000002B05DD59461A46284600F00DFC83463D
:10375000099B002B05DD21461A46284600F004FC93
:1037600004460F9B002B70D02146584600F06CFC9D
:1037700000286ADA002359460A22284600F048FA4F
:103780000B9B83460AF1FF3A002B00F094813146EF
:1037900000230A22284600F03BFAB9F1000F064642
:1037A00000F39380229B022B57DC8EE0169BC3F123
:1037B000360357E7089B5C1E0A9BA342B7BF0A9BD0
:1037C0001C1BE21A0E9BBEBF0A949B180E93089B0B
:1037D000B8BF0024002BBBBF069B089A069F9F1A08
:1037E000ACBF089B00233FE70000E03F00002440FF
:1037F0000A9C069F0B9E42E70A9A6BE7229B012BCD
:1038000019DC049BBBB9059BC3F313039BB9059B50
:1038100023F000431B0D1B0583B14FF00108069BED
:1038200001330693099B013309930E9B002B7FF410
:103830006AAF01206FE74FF00008F6E79846F4E71B
:103840003FF47DAF18461C3072E7089B002B36DC36
:10385000229B022B33DDDDF82090B9F1000F0DD152
:1038600021464B460522284600F0D2F9014604467F
:10387000584600F0E9FB00283FF7B8AD239B039FB3
:103880006FEA030A4FF000082146284600F09EF92F
:10389000002E3FF4A7AEB8F1000F05D0B04503D01D
:1038A0004146284600F092F93146284600F08EF94C
:1038B00098E600242646E1E7C246264696E50B9B9D
:1038C000DDF82090002B00F0FD80002F05DD314653
:1038D0003A46284600F048FB0646B8F1000F5CD097
:1038E0002846716800F032F9074628B9024640F2CE
:1038F000EA217F4BFFF728BB326906F10C01023247
:1039000092000C3000F014F901223946284600F0EC
:103910002BFBB0460646039B01330893039B4B44A5
:103920000A93049B03F001030993089B2146013B82
:1039300058460493FFF768FA034641463033069031
:1039400058460B9300F080FB3246814621462846BC
:1039500000F096FBC26807460B9B02BB0146584627
:1039600000F072FB02460B9B39462846CDE90B322C
:1039700000F02CF9229B0C9A089F43EA0201099B54
:103980000B430B9B0DD1392B29D0B9F1000F01DD71
:10399000069B3133049A137076E73046B9E701226B
:1039A000E2E7B9F1000F06DB229941EA090909991A
:1039B00059EA010120D1002AECDD594601222846AE
:1039C000089300F0D1FA2146834600F03DFB002821
:1039D000089B02DCDED1DA07DCD5392BD8D13923BC
:1039E000049A13703B461F4617F8012C013B392AF5
:1039F00050D001321A7047E7002A03DD392BEED090
:103A00000133C7E7089A0A9902F8013C8A422AD092
:103A1000594600230A22284600F0FAF8B0458346AA
:103A20004FF000034FF00A024146284607D100F04C
:103A3000EFF880460646089B0133089375E700F0CF
:103A4000E7F83146804600230A22284600F0E0F8D5
:103A50000646F0E7B9F1000FCCBF4F4601274FF003
:103A60000008039A1744594601222846089300F09B
:103A70007BFA2146834600F0E7FA0028B2DC02D147
:103A8000089BDB07AED43B461F4613F8012D302AB6
:103A9000FAD0F9E6039A9A42A5D131230AF1010A34
:103AA00079E7144BFFF7A8BA269B002B7FF481AA75
:103AB000114BFFF7A1BAB9F1000F03DC229B022BD7
:103AC0003FF7CBAE039F21465846FFF79DF9039A77
:103AD00000F1300307F8013BBA1A9145BADD5946A7
:103AE00000230A22284600F093F88346EBE700BF44
:103AF000E5530008F3520008665300080048704779
:103B000060010020024B0146186800F01DBC00BF98
:103B10000C000020034610B5C9B202449342184677
:103B200001D1002003E0047801338C42F6D110BDAE
:103B30000A44914200F1FF3300D1704710B511F8EB
:103B4000014B914203F8014FF9D110BD70B5466A9F
:103B500004460D4676B91020FFF7D4FF0246606296
:103B600020B96621174B184800F0CEFDC0E9016668
:103B70000660C660666AF36883B1636ADB6853F8FF
:103B80002500B8B9012101FA05F6721D2046920000
:103B900000F05EFB60B1C0E901560EE02122042175
:103BA000204600F055FB636AF060DB68002BE4D12F
:103BB000002070BD026843F825200023C0E90333CC
:103BC000F7E700BF73530008F653000870B5466A64
:103BD00005460C4676B91020FFF794FF024668624E
:103BE00020B98A21084B094800F08EFDC0E9016622
:103BF0000660C6603CB16B6A6268DB6853F82210ED
:103C0000216043F8224070BD73530008F65300084A
:103C10002DE9F04107460C461E4600200D6901F1D2
:103C2000140CDCF80030013099B202FB01611E0C6B
:103C30000B0C02FB063389B201EB034185424FEACC
:103C400013464CF8041BECDC0EB3A368AB4219DC42
:103C5000616838460131FFF779FF804628B902468E
:103C6000B5210C4B0C4800F04FFD226904F10C010A
:103C7000023292000C30FFF75BFF21463846FFF717
:103C8000A5FF444604EB850301355E6125612046AE
:103C9000BDE8F081E5530008F6530008020C120459
:103CA0000346CAB90304102013F07F4F04BF1B0260
:103CB000083013F0704F04BF1B01043013F0404F65
:103CC00004BF9B000230002B05DB13F0804F00F196
:103CD000010008BF202070470020E5E70368024686
:103CE00013F007000BD0D90721D4980749BF5B0810
:103CF0009B08012013605CBF02201360704799B2DB
:103D000009B910201B0CD9B209B908301B0A1907D0
:103D100004BF1B090430990704BF9B080230D90770
:103D200003D45B0800F1010003D01360704700204A
:103D3000704720207047000010B50C460121FFF7A6
:103D400005FF024628B94FF4A071044B044800F067
:103D5000DBFC01234461036110BD00BFE553000893
:103D6000F65300082DE9F04F91460A69D9F8103052
:103D70000C469A42BEBF0B464C4699462769D9F875
:103D800010A0A368616807EB0A06B34285B0B8BF0C
:103D90000131FFF7DBFE30B9024640F25D11434BC3
:103DA000434800F0B1FC00F114052B46002205EB5E
:103DB0008608434521D304F1140303EB870709F177
:103DC000140303EB8A0202923A1B153A22F0030213
:103DD000043204F115018F4238BF04220192029A85
:103DE00003939A420CD8002E03DD58F8043D002BB3
:103DF00059D0066105B0BDE8F08F43F8042BD8E731
:103E0000B3F800A0BAF1000F23D0A9464FF0000C80
:103E100004F1140E5EF8042BD9F800101FFA82FB8F
:103E200089B20AFB0B116144D9F800C0120C4FEAA9
:103E30001C4C0AFB02C202EB114289B241EA024168
:103E400077454FEA124C49F8041BE3D8019A45F82C
:103E500002C0039A0433B2F80290B9F1000F20D0E7
:103E6000AE464FF0000A296804F1140CBCF800B00B
:103E7000BEF8022089B209FB0B22924441EA0A41B2
:103E80004EF8041B5CF8042BBEF80010120C09FB62
:103E90000211674501EB1A414FEA114AE6D8019A2F
:103EA000A95004359BE7013E9DE700BFE55300089C
:103EB000F65300082DE9F843154612F003020646B2
:103EC0000F4607D0254C013A002354F82220FFF773
:103ED0009FFE0746AD103DD0746A7CB91020FFF7F5
:103EE00011FE0246706228B94FF4D7711C4B1D4871
:103EF00000F00AFCC0E901440460C460D6F82480E4
:103F0000D8F808404CB940F271213046FFF714FF51
:103F100000230446C8F8080003604FF00009EB07CF
:103F20000AD5394622463046FFF71CFF80463946FF
:103F30003046FFF74BFE47466D100BD0206838B96E
:103F4000224621463046FFF70DFF2060C0F8009062
:103F50000446E4E73846BDE8F88300BF485500084A
:103F600073530008F65300082DE9F0470C46074646
:103F700091462369496803EB6218A3684FEA621A05
:103F800008F10106B3420BDB3846FFF7DFFD0546BB
:103F900048B9024640F2D911294B2A4800F0B4FB37
:103FA00001315B00EEE7002300F1140100F1100283
:103FB0001846534537DB20692AEAEA7A04F11403EC
:103FC00019F01F0901EB8A0103EB80002FD08A460C
:103FD0004FF0000CC9F1200E1A6802FA09F242EA09
:103FE0000C024AF8042B53F8042B984222FA0EFCD8
:103FF000F2D8031B153B23F00303043304F115022D
:10400000904238BF042341F803C0BCF1000F01D037
:1040100008F10206013E384621462E61FFF7D6FD23
:104020002846BDE8F08742F8040F0133C1E70439A0
:1040300053F8042B984241F8042FF9D8EAE700BF5F
:10404000E5530008F653000803460A69006930B5D5
:10405000801A0DD11433143103EB820401EB820179
:1040600054F8045D51F8042D954202D004D3012088
:1040700030BDA342F4D3FBE74FF0FF30F8E7000078
:104080002DE9F84F0D460746114628461446FFF71E
:10409000DBFF061E11D131463846FFF757FD0246B9
:1040A00028B940F232213A4B3A4800F02DFB012367
:1040B000C0E904361046BDE8F88FA4BF23462C465D
:1040C00038466168A6BF1D4600260126FFF73EFD63
:1040D000024618B94FF410712D4BE5E702F11408B0
:1040E000C2464FF0000C2769C6602E6904F1140027
:1040F00005F1140900EB870E09EB8606103454F81D
:1041000004BF59F8043B1FFA8BF18C4499B21B0C85
:10411000ACEB0101C3EB1B4303EB214389B24FEA34
:10412000234C4E4541EA03434AF8043BE7D8731B4E
:10413000153B23F0030315350433AE4238BF042387
:10414000184443441E46054675450ED30EF103013F
:10415000091A21F003010338864538BF00211944AC
:1041600051F8043D8BB11761A4E755F8048B1FFA91
:1041700088F161440C1404EB184489B241EA04410B
:104180004FEA244C46F8041BDEE7013FE8E700BF96
:10419000E5530008F65300082DE9F3410121DDE95C
:1041A000087690461D46FFF7D1FC044630B902461A
:1041B00040F20A31244B254800F0A6FAC5F3130358
:1041C000C5F30A552DBB0193B8F1000326D068460C
:1041D0000093FFF783FD0099F0B1019AC0F120032D
:1041E00002FA03F30B43C24063610192019B002B6F
:1041F00014BF02210121A3612161C5B1A5F233459C
:104200000544C0F135003D603060204602B0BDE895
:10421000F08143F48013D6E76161E7E701A8FFF777
:104220005DFD0121019B216163612030E5E704EB25
:104230008103A0F2324038601869FFF72FFDC0EB10
:1042400041113160E1E700BFE5530008F653000873
:1042500070B5A1FB025434B9294600F075F8064642
:1042600028B9304670BD0C2200260260F9E72A46C4
:104270002146FEF741F9F4E738B50546002940D05C
:1042800051F8043C0C1F002BB8BFE41800F098FA5A
:104290001C4A136833B9636014602846BDE838408F
:1042A00000F094BAA34208D9206821188B4201BFBC
:1042B00019685B6809182160EDE71A465B680BB165
:1042C000A342FAD911685018A0420BD120680144CA
:1042D000501883421160E0D118685B680144116096
:1042E0005360DAE702D90C232B60D6E72068211847
:1042F0008B4201BF19685B680918216063605460D4
:10430000CBE738BDD002002070B50E4E0C463168A8
:10431000054611B900F0E8F930602146284600F062
:10432000E3F9431C0AD0C41C24F00304A04207D0C4
:10433000211A284600F0D8F9013001D14FF0FF349E
:10434000204670BDD40200202DE9F041CD1C25F09F
:10435000030508350C2D38BF0C25002D074601DB61
:10436000A94205D90C2300263B603046BDE8F08108
:104370002E4E00F025FA33681C4634BB29463846D9
:10438000FFF7C2FF431C04464DD134682646002E79
:1043900040D123683146384604EB030800F0A4F905
:1043A00080453AD1216803356D1A25F0030508359B
:1043B0000C2D38BF0C2538462946FFF7A5FF0130E4
:1043C0002BD023682B4423600EE02268521B1ED49E
:1043D0000B2A16D96119A342256018BF596063687A
:1043E00008BF316062514B60384604F10B0600F0A3
:1043F000EDF926F00706231DF21AB6D09B1BA35039
:10440000B3E76268A3420CBF32605A60ECE7234610
:104410006468B2E734467668B9E70C2338463B60F7
:1044200000F0D4F9A1E72560DEE700BFD00200204C
:104430002DE9F0478E6882469E420C4690461F4604
:1044400038D88A8912F4906F32D02568096901330F
:10445000A5EB010965694B4405EB450505EBD575F1
:104460006D109D4238BF1D46530531D52946FFF7D3
:104470006BFF064650B90C234FF0FF30CAF80030EE
:10448000A38943F04003A381BDE8F0874A46216930
:10449000FFF74EFBA38923F4906343F08003A381CD
:1044A00026614E4426603E466561A5EB0905A56080
:1044B000BE4200D93E4632464146206800F066F9C9
:1044C000A36800209B1BA360236833442360DBE7C1
:1044D0002A4600F081F906460028E1D150462169BC
:1044E000FFF7CAFEC7E700002DE9F04F98468B8919
:1044F00007461B060D4614469DB00ED50B6963B9E1
:104500004021FFF721FF2860286120B90C233B6080
:104510004FF0FF30D1E040236B610023099320234B
:104520008DF8293030234FF00109CDF80C80DFF8E9
:10453000A4818DF82A3023469A4613F8012B0AB13C
:10454000252AF9D1BAEB040B0BD05B46224629464B
:104550003846FFF76DFF013000F0AA80099A5A44EF
:1045600009929AF80030002B00F0A28000234FF04F
:10457000FF32CDE905230AF1010A049307938DF870
:1045800053301A935446052214F8011B5148FFF783
:10459000C1FA049AD8B9D00644BF20238DF853300D
:1045A000110744BF2B238DF853309AF800302A2B83
:1045B00015D0544600204FF00A0C079A214611F8F6
:1045C000013B303B092B4ED9B0B1079214E0A0EB70
:1045D000080309FA03F31343A2460493D2E7039BAB
:1045E000191D1B680391002BBBBF5B4242F0020206
:1045F00007930793B8BF049223782E2B0CD16378CE
:104600002A2B35D1039B02341A1D1B680392002B01
:10461000B8BF4FF0FF330593DFF8BCA0032250462C
:104620002178FFF777FA40B14023A0EB0A0003FAA4
:1046300000F0049B01340343049314F8011B062289
:1046400026488DF82810FFF765FA002838D0244B4B
:104650001BBB039B073323F0070308330393099B1A
:104660003344099367E70C4601200CFB0232A5E7AF
:1046700000234FF00A0C194601340593204610F828
:10468000012B303A092A03D9002BC5D00591C3E785
:10469000044601230CFB0121F0E703AB00932A46FB
:1046A0003846104B04A9FDF7CDFF421C0646D6D173
:1046B000AB895B063FF52CAF09981DB0BDE8F08FC4
:1046C00003AB00932A463846064B04A9FEF756FA78
:1046D000EBE700BF545500085A5500085E55000826
:1046E000452600083144000838B50023054D04462E
:1046F00008462B60FDF764FE431C02D12B6803B112
:10470000236038BDD80200201FB514461A46094B55
:1047100005461B68D8684CB1074BCDE901340091C0
:104720002B46064900F00EF800F0AAFA044B1C468E
:10473000F3E700BF0C000020655500087255000823
:10474000A05500080EB403B5014603AB054853F865
:10475000042B0068019300F095F802B05DF804EBBB
:1047600003B070470C00002082B001B901A942B12A
:104770004BB113780B601278101E18BF012002B0E5
:1047800070471046FBE76FF00100F8E7884210B56C
:1047900001EB020402D98442234607D8431EA142FA
:1047A00008D011F8012B03F8012FF8E70146024465
:1047B0008A4200D110BD13F8014D02F8014DF7E710
:1047C000014800F019BC00BFDC020020014800F0E5
:1047D00014BC00BFDC0200202DE9F04180461446E5
:1047E0000E4621B91146BDE8F041FFF7ADBD2AB92B
:1047F000FFF742FD25462846BDE8F08100F064FC45
:104800008442074602D8B4EB500F12D821464046E6
:10481000FFF79AFD05460028EDD0BC4222463146FE
:1048200028BF3A46FFF784F931464046FFF724FD9A
:10483000E1E73546DFE7936810B4013B002B936056
:1048400007DA9469A34201DB0A2902D110BC00F007
:1048500049B91368581C10601970084610BC70479D
:10486000F8B506460F461446D518AC4201D10020D3
:1048700007E03A46304614F8011BFFF7DCFF431C03
:10488000F3D1F8BD2DE9F04F0D4614469846064683
:104890009DB018B183690BB900F010FB894B9D42A4
:1048A0001BD175686B6ED90705D4AB899A0502D404
:1048B000A86D00F0A1FBAB891B0701D52B69EBB9F3
:1048C0002946304600F06EF9C0B16B6EDC070ED59C
:1048D0004FF0FF301DB0BDE8F08F7B4B9D4201D102
:1048E000B568DFE7794B9D4208BFF568DAE7AB8929
:1048F0009805EDD4A86D00F080FBE9E7002309934B
:1049000020238DF8293030234FF00109CDF80C8099
:10491000DFF8BC818DF82A3023469A4613F8012B24
:104920000AB1252AF9D1BAEB040B0BD05B4622461B
:1049300029463046FFF794FF013000F0AA80099A1B
:104940005A4409929AF80030002B00F0A28000230C
:104950004FF0FF32CDE905230AF1010A04930793D2
:104960008DF853301A935446052214F8011B584809
:10497000FFF7D0F8049AD8B9D10644BF20238DF8A8
:104980005330130744BF2B238DF853309AF800306F
:104990002A2B15D0544600204FF00A0C079A2146C6
:1049A00011F8013B303B092B4ED9B0B1079214E00E
:1049B000A0EB080309FA03F31343A2460493D2E7DA
:1049C000039B191D1B680391002BBBBF5B4242F088
:1049D000020207930793B8BF049223782E2B0CD1C1
:1049E00063782A2B35D1039B02341A1D1B6803926E
:1049F000002BB8BF4FF0FF330593DFF8D8A0032298
:104A000050462178FFF786F840B14023A0EB0A001A
:104A100003FA00F0049B01340343049314F8011BD0
:104A200006222D488DF82810FFF774F800283FD093
:104A30002A4B1BBB039B073323F007030833039365
:104A4000099B3B44099367E70C4601200CFB0232AB
:104A5000A5E700234FF00A0C1946013405932046C0
:104A600010F8012B303A092A03D9002BC5D0059143
:104A7000C3E7044601230CFB0121F0E703AB0093DD
:104A80002A463046164B04A9FDF7DCFD0746781C84
:104A9000D6D16B6ED90705D4AB899A0502D4A86D1F
:104AA00000F0ABFAAB895B063FF512AF099811E74E
:104AB00003AB00932A463046094B04A9FEF75EF883
:104AC000E4E700BFCC560008EC560008AC560008DE
:104AD000545500085A5500085E5500084526000840
:104AE00061480008F8B50E461446054618B18369BA
:104AF0000BB900F0E3F9214B9C422BD16C68A36900
:104B0000A360A3891A072FD523696BB32369206893
:104B1000F6B2C01A63693746834204DC2146284650
:104B200000F038F930BBA3680130013BA360236873
:104B30005A1C22601E706369834204D0A389DB077C
:104B400006D50A2E04D12146284600F023F988B95B
:104B50003846F8BD0A4B9C4201D1AC68CFE7094BFF
:104B60009C4208BFEC68CAE72146284600F01AF8C4
:104B70000028CBD04FF0FF37EAE700BFCC56000843
:104B8000EC560008AC5600080346084641B1FF2A1F
:104B900004D98A224FF0FF301A60704701200A7052
:104BA00070470000324B70B51D6806460C4625B1B3
:104BB000AB6913B9284600F081F92E4B9C420FD106
:104BC0006C68A389B4F90C2019072CD4DD0611D424
:104BD0000923336042F040034FF0FF30A3813EE0F1
:104BE000254B9C4201D1AC68EBE7244B9C4208BFAB
:104BF000EC68E6E7580712D5616B41B104F1440354
:104C0000994202D03046FFF737FB00236363A38944
:104C100023F02403A3810023636023692360A38915
:104C200043F00803A38123694BB9A38903F42073DC
:104C3000B3F5007F03D02146304600F005FAA08985
:104C4000B4F90C2010F001030AD00023A3606369BB
:104C50005B42A361236943B910F08000BAD170BDF3
:104C6000810758BF6369A360F4E70020F7E700BF3E
:104C70000C000020CC560008EC560008AC5600088A
:104C8000062008B500F050FA0120FDF777FB000080
:104C90008A89F8B5054610070C4657D44B68002B97
:104CA00004DC0B6C002B01DC0020F8BDE66A002E52
:104CB000FAD0002312F480522F682B6032D0606D3E
:104CC000A3895A0705D56368C01A636B0BB1236CBF
:104CD000C01A00230246E66A2846216AB047431CF0
:104CE000A38906D129681D292CD8294ACA40D6078C
:104CF00028D5002262602269D904226004D5421CB2
:104D000001D12B6803B96065616B2F600029CBD09E
:104D100004F14403994202D02846FFF7ADFA00207F
:104D20006063C2E7216A01232846B047411CC7D10E
:104D30002B68002BC4D01D2B01D0162B01D12F6066
:104D4000B2E7A38943F04003A381AEE70F69002FC8
:104D5000AAD0930718BF00230E6808BF4B69F61B43
:104D60000F608B60002E9FDD33463A462846216A4D
:104D7000D4F828C0E047002806DCA3894FF0FF30B4
:104D800043F04003A38190E70744361AEAE700BFE7
:104D90000100402038B50B6905460C4613B90025C3
:104DA000284638BD18B183690BB900F087F8144B59
:104DB0009C421BD16C68B4F90C30002BEFD0626EB2
:104DC000D00704D4990502D4A06D00F015F9284647
:104DD0002146FFF75DFF636E0546DA07E0D4A3893D
:104DE0009B05DDD4A06D00F008F9D9E7054B9C4286
:104DF00001D1AC68DFE7044B9C4208BFEC68DAE7FE
:104E0000CC560008EC560008AC560008002310B53C
:104E10000446C0E90033C0E90433836081814366FE
:104E2000C2818361194608225C30FDF765FB054BA2
:104E300024626362044BA362044BE362044B23636A
:104E400010BD00BF6151000883510008BB5100082C
:104E5000DF510008014900F0AFB800BF954D0008D0
:104E6000682270B54D1E55430E4605F17401FFF7DB
:104E70006BFA044640B10021C0E900160C30A06076
:104E800005F16802FDF738FB204670BD014800F0CF
:104E9000B3B800BFDD020020014800F0AEB800BF8B
:104EA000DD020020014800F0A7B800BFDE020020AC
:104EB000014800F0A2B800BFDE02002010B5044691
:104EC000FFF7F0FFA3691BB1BDE81040FFF7F0BF8B
:104ED000C4E912332365134B134A1B68A262A34231
:104EE00008BF0123204608BFA36100F01FF86060DF
:104EF000204600F01BF8A060204600F017F80022C2
:104F00000421E0606068FFF781FF01220921A068A9
:104F1000FFF77CFF02221221E068FFF777FF0123F1
:104F2000A361D1E730530008554E0008F8B5074695
:104F3000FFF7ACFF1E4B1E68B36913B93046FFF78D
:104F4000BDFF4836D6E90134013B03D533680BB3C6
:104F50003668F7E7B4F90C50D5B9164B04F1580090
:104F6000E360656600F047F8FFF796FF08222946E0
:104F7000C4E90155C4E904552560A56104F15C004C
:104F8000FDF7BAFAC4E90D55C4E912552046F8BD3B
:104F90006834D9E704213846FFF762FF04463060E1
:104FA0000028D5D1FFF778FF0C233B60EEE700BF68
:104FB000305300080100FFFF2DE9F84306468846FC
:104FC000002700F14804D4E90195B9F1010905D59C
:104FD0002468002CF7D13846BDE8F883AB89012B53
:104FE00007D9B5F90E30013303D029463046C04702
:104FF00007436835E9E770477047704770B50E465C
:10500000B1F90E10144600291D4696B008DA0022A8
:10501000B6F90C302A601A0610D44FF480630EE003
:105020006A4600F003F90028F1DB019A02F47042AD
:10503000A2F500535A425A412A60EEE7402300206D
:10504000236016B070BD00008B8973B59D070646BE
:105050000C4607D504F147032360236101236361F4
:1050600002B070BD6A4601ABFFF7C8FF0099054664
:105070003046FFF769F948B9B4F90C309A05EFD416
:1050800023F0030343F00203A381E3E70D4BB36274
:10509000A389206043F08003A381009B20616361AA
:1050A000019B5BB13046B4F90E1000F0D1F828B185
:1050B000A38923F0030343F00103A381A0890543DF
:1050C000A581CDE7554E000851F8043C181F002B70
:1050D000BCBF0B58C01870471F2938B504460D4691
:1050E00004D9162303604FF0FF3038BD426C12B173
:1050F00052F821304BB9204600F030F82A460146DC
:105100002046BDE8384000F017B8012B0AD0591CE2
:1051100003D1162303600120E7E70024284642F864
:10512000254098470020E0E7024B01461868FFF74A
:10513000D3BF00BF0C00002038B50023064D044645
:10514000084611462B60FDF711F9431C02D12B686C
:1051500003B1236038BD00BFD8020020FDF704B9B9
:1051600010B50C46B1F90E1000F094F80028ABBF52
:10517000636DA3891B1823F48053ACBF6365A381BF
:1051800010BD2DE9F0411F468B890546DB050C4615
:10519000164605D502230022B1F90E1000F068F87A
:1051A000A389324623F48053A38128463B46B4F9B1
:1051B0000E10BDE8F04100F017B810B50C46B1F97B
:1051C0000E1000F055F8431CA38915BF606523F449
:1051D000805343F48053A38118BFA38110BDB1F95C
:1051E0000E1000F013B8000038B50446084611460A
:1051F0000022054D2A601A46FDF7D4F8431C02D15F
:105200002B6803B1236038BDD802002038B50023D5
:10521000054D044608462B60FDF7ECF8431C02D10F
:105220002B6803B1236038BDD802002038B50023B5
:10523000064D0446084611462B60FDF7DEF8431C78
:1052400002D12B6803B1236038BD00BFD802002013
:1052500038B50023054D044608462B60FDF7D2F80B
:10526000431C02D12B6803B1236038BDD802002053
:1052700038B50446084611460022054D2A601A46F4
:10528000FDF7C2F8431C02D12B6803B1236038BD7F
:10529000D802002038B50446084611460022054DC4
:1052A0002A601A46FDF770F8431C02D12B6803B13F
:1052B000236038BDD8020020F8B500BFF8BC08BC98
:1052C0009E467047F8B500BFF8BC08BC9E467047C4
:1052D00002030405060708090A0B0C0D0E0F101037
:1052E00000696E697469616C697A6564004D505536
:1052F000363035300041783D00252E32660067207B
:105300000041793D00417A3D0047783D0047793DB5
:1053100000477A3D00000000000000000001020389
:105320000406070809000000000102030400000051
:1053300010000020494E4600696E66004E414E0046
:105340006E616E0030313233343536373839414290
:1053500043444546003031323334353637383961CD
:10536000626364656600496E66696E697479004EB1
:10537000614E005245454E54206D616C6C6F632048
:10538000737563636565646564002F6275696C6439
:105390002F676E752D746F6F6C732D666F722D7322
:1053A000746D33325F31302E332D323032312E3145
:1053B000302E32303231313130352D313130302FE5
:1053C0007372632F6E65776C69622F6E65776C6997
:1053D000622F6C6962632F7374646C69622F6474EA
:1053E0006F612E630042616C6C6F63207375636341
:1053F0006565646564002F6275696C642F676E75FE
:105400002D746F6F6C732D666F722D73746D3332E4
:105410005F31302E332D323032312E31302E32305A
:105420003231313130352D313130302F7372632FBD
:105430006E65776C69622F6E65776C69622F6C6937
:1054400062632F7374646C69622F6D707265632E72
:1054500063000000000000000080E03779C3414392
:10546000176E05B5B5B89346F5F93FE9034F384DCA
:10547000321D30F94877825A3CBF737FDD4F157576
:10548000000000000000F03F000000000000244089
:1054900000000000000059400000000000408F4064
:1054A000000000000088C34000000000006AF840CF
:1054B0000000000080842E4100000000D0126341F3
:1054C0000000000084D797410000000065CDCD4169
:1054D000000000205FA00242000000E8764837424A
:1054E000000000A2941A6D42000040E59C30A242E8
:1054F0000000901EC4BCD64200003426F56B0C435D
:105500000080E03779C3414300A0D8855734764303
:1055100000C84E676DC1AB43003D9160E458E14364
:10552000408CB5781DAF154450EFE2D6E41A4B44D9
:1055300092D54D06CFF08044F64AE1C7022DB5441E
:10554000B49DD9794378EA440500000019000000B1
:105550007D000000232D302B2000686C4C00656618
:1055600067454647002C2066756E6374696F6E3A16
:105570002000617373657274696F6E202225732237
:10558000206661696C65643A2066696C6520222535
:1055900073222C206C696E65202564257325730A9F
:1055A000004300504F534958002E00002020202077
:1055B00020202020202828282828202020202020C3
:1055C00020202020202020202020202088101010A3
:1055D00010101010101010101010101004040404FB
:1055E0000404040404041010101010101041414170
:1055F00041414101010101010101010101010101DB
:10560000010101010101011010101010104242426D
:1056100042424202020202020202020202020202AA
:10562000020202020202021010101020000000000C
:10563000000000000000000000000000000000006A
:10564000000000000000000000000000000000005A
:10565000000000000000000000000000000000004A
:10566000000000000000000000000000000000003A
:10567000000000000000000000000000000000002A
:10568000000000000000000000000000000000001A
:10569000000000000000000000000000000000000A
:1056A00000000000000000000000000000000000FA
:1056B00000000000000000000000000000000000EA
:1056C00000000000000000000000000000000000DA
:1056D00000000000000000000000000000000000CA
:1056E00000000000000000000000000000000000BA
:1056F00000000000000000000000000000000000AA
:0C5700000000000000000000000000009D
:04570C00350100085B
:04571000110100087B
:10571400010000001000000000A24A041000002054
:1057240000000000CC560008EC560008AC560008F7
:105734000000000000000000000000000000000065
:105744000000000000000000000000000000000055
:105754000000000000000000000000000000000045
:105764000000000000000000000000000000000035
:105774000000000000000000000000000000000025
:1057840043000000000000000000000000000000D2
:105794000000000000000000000000000000000005
:1057A40043000000000000000000000000000000B2
:1057B40000000000000000000000000000000000E5
:1057C4004300000000000000000000000000000092
:1057D40000000000000000000000000000000000C5
:1057E4004300000000000000000000000000000072
:1057F40000000000000000000000000000000000A5
:105804004300000000000000000000000000000051
:105814000000000000000000000000000000000084
:105824004300000000000000000000000000000031
:105834000000000000000000000000000000000064
:105844004300000000000000000000000000000011
:105854000000000000000000000000000000000044
:10586400894B00086947000800000000AB55000898
:10587400A9550008A0550008A0550008A055000827
:10588400A0550008A0550008A0550008A055000820
:10589400A0550008A0550008FFFFFFFFFFFFFFFF12
:1058A400FFFFFFFFFFFF0000010041534349490090
:1058B40000000000000000000000000000000000E4
:1058C400000000000000000000004153434949006B
:1058D40000000000000000000000000000000000C4
:0C58E400000000000000000000000000B8
:040000050800245972
:00000001FF
